:020000040800F2
:10000000281C002001010008EB140008C1110008A1
:10001000E9140008C3010008BD2900080000000021
:100020000000000000000000000000003D18000873
:100030000D020008000000003B1800083F180008EF
:100040001B0100081B0100081B0100081B01000820
:100050001B0100081B0100081B0100081B01000810
:100060001B0100081B0100081B0100081B01000800
:100070001B0100081B0100081B0100081B010008F0
:100080001B0100081B0100081B0100081B010008E0
:10009000552900081B0100081B0100081B0100086E
:1000A0001B0100081B0100081B0100081B010008C0
:1000B000E91800081B0100081B0100081B010008CB
:1000C0001B0100081B0100081B0100081B010008A0
:1000D0001B0100081B0100081B0100081B01000890
:1000E000110200081B0100081B010008DFF80CD0FA
:1000F00000F02AF8004800477D2A0008281C00204C
:100100000648804706480047FEE7FEE7FEE7FEE7B1
:10011000FEE7FEE7FEE7FEE7FEE7FEE79D180008C4
:10012000ED000008D2B201E000F8012B491EFBD21D
:1001300070470022F6E710B513460A4604461946F2
:10014000FFF7F0FF204610BD064C074D06E0E068C3
:1001500040F0010394E8070098471034AC42F6D30E
:10016000FFF7C8FFE03400080035000870B58C18B0
:1001700010F8015B15F0070301D110F8013B2A11BB
:1001800006D110F8012B03E010F8016B01F8016BA8
:100190005B1EF9D12B0705D40023521E0DD401F8A4
:1001A000013BFAE710F8013BCB1A921C03E013F86D
:1001B000015B01F8015B521EF9D5A142D8D30020A2
:1001C00070BDFEE7002070470020704710B50E4C50
:1001D00005490022204601F059FC0449204601F05F
:1001E0004FFC002010BD00BFB0090020C805002052
:1001F00010B5054C0146204601F042FC204601F0B6
:1002000024FC002010BD00BF9C0D002070470000A2
:10021000B0B51E480168490431D54FF480411D4DE9
:1002200001601B490B7823B15A1ED2B2012A0ED9A4
:1002300013E000234FF0804C2B60DCF8003043F0DB
:100240000103CCF8003001232A680B700A612C6886
:1002500001EB8302013314610B70DAB2032A0ED171
:100260002A68CA614FF08042136823F001031360CB
:1002700000220A70D1E9052304319D1A2CC10168BE
:10028000090444BF4FF400410160B0BD14040140B3
:1002900080010020240000407047000005480068ED
:1002A000704700BF1B48034900780A681044086083
:1002B000704700BF2014002080B50748016841F056
:1002C00010010160032000F073F8002000F006F830
:1002D00000F024F8002080BD0020024070B50D4ED3
:1002E00004464FF47A713078B1FBF0F00A4909689E
:1002F000B1FBF0F000F050FF01250F2C08D838B901
:100300004FF0FF3021460022002500F033F87460E2
:10031000284670BD000000202400002082B00D4857
:100320000422016841F001010160016801F001014E
:1003300001910199416841F080514160406800F0AD
:100340008050009000980448016862F31A610160CF
:1003500002B07047181002400400014000F01F0175
:100360000122400902FA01F1014A42F820107047C7
:1003700000E100E080B5144B1B68C3F3022CBCF114
:10038000030E8CF007034FF0FF3C38BF4FF0000E18
:10039000042B28BF04230CFA03F399430CFA0EF341
:1003A00001FA0EF19A431143BDE8804001F0B0B864
:1003B00005494FF6FF030A681A4060F30A22034812
:1003C00010430860704700BF0CED00E00000FA0524
:1003D00080B501F07F0E00EB411C090600EB4E10CA
:1003E00000F1280058BF0CF50A702AB10121C38022
:1003F0008172190C018102E000218380817200204A
:1004000080BD704700EB4112D0F85C04D26B01F064
:10041000A6BC00EB4112D0F85C04D2F83C2201F0FB
:10042000EFBC10B501F07F0C0A46044600EB4C13FC
:10043000100603F128014FEAD21058BF03F50A71E4
:10044000487081F800C094F82804012804BF0220F5
:1004500010BD012084F82804206802F0CEF80020A6
:1004600084F8280410BDB0B5044601F07F030A46A5
:1004700000EB411004EB4311150601F128014FF088
:10048000000558BF00F50A71D00948700B708D70D7
:1004900094F82804012801D1022507E0012084F8FE
:1004A0002804206802F041F984F828542846B0BD99
:1004B00001F00F0100EB4110B0F84402704770B535
:1004C00001F07F0C06460C4600EB4C10250600F1AF
:1004D000280158BF00F50A71E0090A61487081F8E7
:1004E00000C0CB7096F82804012804BF022070BD1C
:1004F000012086F82804306801F074FF002086F897
:10050000280470BD80B501F07F0C4FF0000E00EBA9
:100510004C1101F50F77A7E80C4081F829E281F82A
:1005200028C201F50A71006802F05AF9002080BD66
:10053000B0B5044601F07F050A4600EB411004EB1C
:100540004511130601F1280158BF00F50A71D009C1
:10055000487001200D70887094F82824012A04BF87
:100560000220B0BD84F82804206802F013F925B9F0
:10057000206804F22C4102F0D6F8002084F8280408
:10058000B0BD80B501F07F0C00EB4C1101F828CF15
:100590004FF0000C01F1140E8EE80C1001224A708D
:1005A000006802F01DF9002080BD2DE9FE4F0446D1
:1005B000006802F0D5F9000401D42068ACE1002005
:1005C00048F60F75ADF80A00ADF8080004F22C40AB
:1005D000019098E1BDF80A1011F00F0832D030F800
:1005E00028104FEA4809ADF80810BDF90810B1F11C
:1005F000FF3F00F3098130F8191040F68F7204EBC9
:10060000481A0AF50A7B114020F819109AF832129C
:10061000002900F0AC809BF8001030F82120B0F8E1
:10062000503003EBC101520400EB410100F1B680F0
:10063000D1F80C646FF39F26002E00F0BC80BAF84E
:100640003022B2E0BDF80A200188D2062AD429401F
:100650000180B0F8501094F8282001EBC20100EBA3
:100660004100D0F804046FF39F206064E16B0844FC
:100670000021E0632046FFF7C5FE94F8240000281F
:1006800000F04181206C002840F03D81206894F802
:10069000241041F08001C9B2A0F84C10002084F869
:1006A000240030E1ADF80810BDF80810090541D468
:1006B000BDF90810B1F1FF3F00F32581018840F634
:1006C0008F7211400180B0F8501094F8282201EB8D
:1006D000C20100EB4101D1F80C346FF39F23002BD2
:1006E000C4F844320CD0B4F82C22D4F83C1202F0F6
:1006F0003AF9D4F83C02D4F844120844C4F83C0255
:1007000020460021FFF785FE2068B0F85010D4F88D
:10071000383200F20C423F2BC0F0E3805F0140F220
:10072000FF36DB0627EA060708BF07F5F84747F458
:100730000043DBE0B0F8501094F8282201EBC2012E
:1007400000EB4101D1F80C3401996FF39F23C4F8F9
:100750004432B4F82C2202F006F9206840F68F7279
:10076000018811400180204600F00EFACBE0B0F87D
:1007700050109BF8002001EBC20100EB4101D1F8C1
:100780000C646FF39F26002E00F0A980BAF82C228B
:10079000DAF83C12334602F0E6F81AE0D1F80464C5
:1007A0006FF39F263EB1BAF82E22DAF83C12334698
:1007B00002F0D9F800E000269BF80000216840F61E
:1007C0000F7331F820201A4048F2C0031A4321F871
:1007D0002020DAE98F03DAF8441231448219002B21
:1007E000CAF84412CAF83C2203D0DAF83802B04200
:1007F00005D99BF800102046FFF70BFE04E09BF89C
:1008000000102046FFF77EFEBDF8080000067AD5EE
:10081000206804EB481606F1280730F81910294023
:1008200020F8191096F8321099B1397830F8212053
:10083000B0F8503003EBC101520600EB41011DD46A
:10084000D1F80C346FF39F23002B736421D0328EC8
:100850001CE0B0F85020397802EBC10200EB4202F4
:10086000D2F804346FF39F23002B73641FD0B28D32
:10087000F16B02F091F83978206818E0D1F804346F
:100880006FF39F23002B736403D0F28DF16B02F0A2
:1008900083F83978206840F60F7330F821201A4029
:1008A00048F2C00303F57F531A4320F82120B0F823
:1008B000502002EBC10200EB4200D0F804046FF3B9
:1008C0009F207064D6E90F2302442046002BF26378
:1008D00002D0FFF756FE16E0FFF794FD13E0002666
:1008E00077E703F0010707EB53039B029BB242F843
:1008F000113043F60F720188114048F2C00202F530
:100900003F52514001802068B0F94410B1F1FF3FDF
:10091000ADF80A107FF75EAE02F022F840050DD563
:100920002068B0F8441021F48061A0F844102046FB
:1009300000F0FCF82046002100F012F9206802F0D7
:100940000FF801462068490442BFB0F8441021F472
:100950008041A0F8441002F003F8014620688904A1
:1009600042BFB0F8441021F40051A0F8441001F047
:10097000F7FF01462068C90415D5B0F8401021F0F2
:100980000401A0F84010B0F8401021F00801A0F8D0
:100990004010204600F0DCF82068B0F8441021F444
:1009A0008051A0F8441001F0DBFF000519D5206844
:1009B000B0F8401041F00801A0F84010B0F8441021
:1009C00021F40061A0F84410B0F8401041F0040197
:1009D000A0F8401001F0C4FFC00402D4204600F08B
:1009E000F3F8206801F0BCFF800509D52068B0F855
:1009F000441021F40071A0F84410204600F0ACF837
:100A0000206801F0ADFFC00558BFBDE8FE8F20682B
:100A1000B0F8441021F48071A0F84410BDE8FE8FB6
:100A2000F0B585B000285ED0044690F8290428B9B6
:100A3000002084F82804204600F05AF8032084F8A7
:100A40002904206801F066FE94E82F50D4E9076776
:100A50008DE82050CDE9036701F0CDFD206800212D
:100A6000002501F091FF0120002100220CE0631815
:100A700020319A8683F8282083F82900C3E90E558F
:100A80001D6483F82B500132B1F5F07FEFD10020C7
:100A9000002100220DE06318203183F8282283F81A
:100AA0002902C3E98E00C3F8400283F82B029A861C
:100AB0000132B1F5F07FEED194E88F00D4E90565FD
:100AC000D4E907CECDE9007602AE86E8205001F0E9
:100AD0000FFE0025012084F8245084F829042068A2
:100AE00001F004FE00E00125284605B0F0BD00003D
:100AF00000680C49884218BF7047E0B50A480022D8
:100B0000016841F4000101600021006800F4000068
:100B1000019001981420FFF72DFC1420BDE88C40B3
:100B2000FFF71CBC005C00401C10024010B50446DE
:100B30008068022818BFFFF7AFFBD4F85C040121DE
:100B400001F02CFAD4F85C04BDE8104001F0F3B9D0
:100B5000D0F85C0401F00EBAD0F85C0401F010BAD1
:100B600010B5044690F82804012804BF022010BDE7
:100B7000012084F8241084F82804206801F006FF7E
:100B8000002084F8280410BDD0F85C2400F22C4129
:100B9000104601F00FBA10B5044690F82804012859
:100BA00004BF022010BD0120012184F82804204642
:100BB000FFF727FC206801F097FD206801F0C2FED6
:100BC000002084F8280410BD10B50446D0F85C0459
:100BD00001F02DFAA06920B10248016841F0060138
:100BE000016010BD10ED00E02DE9FC4104460078E5
:100BF0009D4EC00756D0B069C0000BD4B0694FF00D
:100C0000010840F08050B061B06900F08050019060
:100C1000019801E04FF000082D4F3868C00510D44E
:100C2000386840F480703860FFF738FB0546386854
:100C3000C00506D4FFF732FB401B6428F7D9032018
:100C400042E0F06910F440701ED0616801F4407118
:100C5000884219D01F49F06901220A6000220A6007
:100C600020F44071C007F1610ED0FFF717FB054675
:100C700041F28837F069800706D4FFF70FFB411B6C
:100C80000320B942F6D91FE0F0696168B8F1000F9E
:100C900020F4407040EA0100F0611EBFB06920F00E
:100CA0008050B0612068810705D53168A26821F4C1
:100CB000404111433160C00605D53068E16820F439
:100CC000800008433060002002B0BDE8F08100BF22
:100CD00000700040400442422DE9F8430D4652495D
:100CE0000446086800F00700A84209D2086820F00E
:100CF000070028430860086800F00700A84253D1A5
:100D00002068594F8946810711D5410742BF39688C
:100D100041F4E0613960010742BF396841F4605134
:100D200039603968A26821F0F00111433960C007C9
:100D300033D1D9F8000000F00700A8420CD9D9F847
:100D4000000020F007002843C9F80000D9F800008F
:100D500000F00700A84227D12068410705D539686F
:100D6000E26821F4E06111433960000706D5386874
:100D7000216920F4605040EAC100386000F058F862
:100D800039682A4A0024C1F30311515CC840FB4969
:100D900008600020FFF7A2FA07E06068012808D188
:100DA00057F8041C89030DD40124204601B0BDE886
:100DB000F08357F8041C022802D18901F4D501E020
:100DC0008907F1D5396821F0030108433860FFF73E
:100DD00065FA0646606841F2883801280CD002287E
:100DE00015D1386800F00C000828A2D0FFF756FA99
:100DF000801B4045F5D914E0386800F00C00042849
:100E000097D0FFF74BFA801B4045F5D909E03868C9
:100E100010F00C0F3FF48DAFFFF740FA801B4045F8
:100E2000F5D90324C1E700BF00200240B62C00081A
:100E300010B50D4C0D48226802F00C03082B18BFAA
:100E400010BDC2F383430AA1CB5CD10302D40D4889
:100E5000584310BD21680AA25843C1F34041515C78
:100E6000B0FBF1F010BD00BF0410024000127A0088
:100E700002030405060708090A0B0C0D0E0F1010DB
:100E80000102000000093D002DE9FC410446007804
:100E9000B84EC00749D0706800F00C00042817D085
:100EA000706800F00C00082802D17068C0030FD4ED
:100EB000606898B1B0F5803F06D03168B0F5A02FDA
:100EC00020D141F480203060306840F480301FE051
:100ED0003068800329D5606838BB07E1306820F4AA
:100EE00080303060306820F480203060FFF7D6F921
:100EF00005463068800318D5FFF7D0F9401B6428F9
:100F0000F7D9E2E021F480303060306820F48020AE
:100F10003060FFF7C3F905463068800305D4FFF75A
:100F2000BDF9401B6428F7D9CFE0207880072BD586
:100F3000706810F00C0F07D0706800F00C000828E3
:100F400009D17068C00306D43068800715D52069C0
:100F5000012812D0CAE02169874800297CD00121EC
:100F60000160FFF79BF905463068800705D4FFF75D
:100F700095F9401B0228F7D9A7E03068616920F095
:100F8000F80040EAC1003060207800072ED5A06943
:100F900078B179480121C0F88014FFF77FF9054640
:100FA000706A800715D4FFF779F9401B0228F7D93A
:100FB0008BE071480021C0F88014FFF76FF90546F7
:100FC000706A800712D5FFF769F9401B0228F7D92C
:100FD0007BE06A484FF4FA510068B0FBF1F00190F1
:100FE00000BF0198411E00280191F9D120784007E7
:100FF00074D5F069C0000BD4F0694FF0010840F0DF
:101000008050F061F06900F080500090009801E09D
:101010004FF000085A4F3868C0050FD4386840F4C4
:1010200080703860FFF73AF905463868C00505D486
:10103000FFF734F9401B6428F7D946E0E068D0B1E7
:10104000012805D0316A05282BD141F00400306217
:10105000306A40F001002AE000210160FFF71EF92C
:101060000546306880077FF58FAFFFF717F9401B03
:101070000228F6D929E0306A20F001003062306A97
:1010800020F004003062FFF709F9054641F2883785
:10109000306A80071BD5FFF701F9401BB842F7D92A
:1010A00013E021F001003062306A20F00400306269
:1010B000FFF7F4F8054641F28837306A800706D416
:1010C000FFF7ECF8401BB842F7D903204FE0B8F126
:1010D000000F1EBFF06920F08050F061E769002F1B
:1010E00044D0706800F00C00082801D101203EE0D7
:1010F0002149002088460866FFF7D0F80546022FF0
:101100000AD147463068800110D5FFF7C7F8411B68
:1011100003200229F6D92AE03068800126D5FFF79E
:10112000BDF8411B03200329F6D320E0206AB0F567
:10113000803F05D17168A26821F4003111437160CC
:101140007168626A104321F47411084370600120D1
:101150003866FFF7A3F804463068800106D4FFF72D
:101160009DF8011B03200229F6D900E0002002B0FF
:10117000BDE8F0810010024000004242240000203F
:10118000007000400C4904280A6822F0040308BFDC
:1011900042F004030B607047411E0020B0EB116F5A
:1011A0001CBF01207047044AF023516003490B70B3
:1011B000072190601160704710E000E023ED00E02F
:1011C000FEE70000F8B50F4C0F4E08250120256002
:1011D000B047102701202760B04701206560B04765
:1011E0006760F8BDF8B5074C074E0825012065601B
:1011F000B047102701206760B04701202560B04745
:101200002760F8BD10080140452A0008B0B552001B
:101210004FF0000C4FF0370E00239A4208BFB0BDCC
:101220000EEB1074050FB0F1204F4FEA001038BFDD
:1012300005F13004CC5443F00104023301F804C03A
:10124000EBE7000081B005490A6802430A600968BB
:1012500008400090009801B0704700BF181002408D
:1012600010B501460268007970B1A2B148791E4CF0
:10127000022812D0012813D0D0B960689043606072
:1012800020681043206011E0174801689143016015
:10129000416891434160012010BD2068104301E086
:1012A000206890432060606810436060012000E087
:1012B0000020897903290AD8DFE801F00A020B0E21
:1012C000E1689143E160A1681143A16010BD002075
:1012D00010BDA168914301E0A1681143A160E168DC
:1012E0001143E16010BD00BF0004014010B5094C7E
:1012F000C1B2012254F8213023EA1043000C90FAC5
:10130000A0F0B0FA80F002FA00F0184344F821008F
:1013100010BD00BF080001402DE9F04FB1F8018079
:1013200098FAA8F34FF0010C4FF00F0B4FF00309A0
:101330004FF0040AB3FA83F338FA03F504BF01202F
:10134000BDE8F08F0CFA03F515EA080F58D0072B0B
:1013500004D840F2011202FA03F707E0A3F10805EE
:101360004FF0011202FA05F545F080673D0E4C681A
:101370002E5897FAA7FEBEFA8EF292000BFA02F2EE
:1013800026EA020297FAA7F6B6FA86F6B60004FA3B
:1013900006F63C0A32432A500A69C66894FAA4F455
:1013A000B4FA84F426EA1726A2403243C2604A689F
:1013B00042F00802092A23D142598E6897FAA7F40D
:1013C000B4FA84F4A40009FA04F4A24397FAA7F447
:1013D000B4FA84F4A400A64032434251CE6897FA8E
:1013E000A7F497FAA7F7B4FA84F4B7FA87F7A4003A
:1013F000BF000AFA04F406FA07F7A2433A4342513F
:10140000013399E7B0B50C4D010E0F244B5990FAFA
:10141000A0F290FAA0F0B2FA82F2B0FA80F0920054
:10142000800004FA02F223EA0202082303FA00F021
:1014300010434851B0BD00BF000C0140B0B5036877
:10144000114DB0F1804F07D0104CA04204D0A842FB
:1014500002D00F4CA04207D14C6823F45C73CA68D9
:1014600024F44074234313430360A8428A68C26291
:101470000A88826204BF097C2963416941F0010145
:1014800041610120B0BD00BF002C014000040040BC
:101490000008004080B510481049002200F038FCD8
:1014A00008B1FEF7F9FE0C480D4900F0DDFD08B16A
:1014B000FEF7F2FE08480B4900F0DBFA08B1FEF730
:1014C000EBFE054800F0E4FD002814BFBDE88040B5
:1014D00080BDFEF7E1BE00BF9C0D0020080000208B
:1014E000280000204C010020FEE7704700F00700B4
:1014F0004FF0FF33C21E80F0070038BF00220428DF
:1015000028BF042003FA00F021EA00009040704751
:1015100010B5064A00F00F030028054C02444FEABC
:101520000110B8BF1A19107010BD00BF00E400E030
:1015300014ED00E0F8B57D4E04460025E8B207281A
:1015400088BFF8BDA5F15000C0B2B0470120B04738
:101550001020B047002703E0204600F0F9F80137DB
:1015600078B20028F8DA0135E8E700BF10B56F4C13
:10157000AE20A0470020A0471020A0474020A04751
:101580008120A047C420A047A020A047C020A0479A
:10159000A620A047A820A0473F20A047D320A047CF
:1015A0000020A047D520A0478020A047D920A047F1
:1015B000F120A047DA20A0471220A047DB20A04757
:1015C0004020A0472020A0470220A0478D20A04710
:1015D0001420A047A420A047A620A047AF20A047E2
:1015E0000020FFF7A7FF00200021BDE8104000F019
:1015F0008BB800BF2DE9F84FDFF86480002B18BFCF
:101600004FF0FF3391468A4606464FF0000BDCB29E
:101610001EE0F0B27E2888BF0AF1010A88BF0026CA
:101620005FFA8AF1F0B200F06FF8A5F12000002710
:10163000C0B200EB400008EB400504E0E85D60400C
:1016400000F086F80137062FF8D10BF1010B0636B2
:101650005FFA8BF019F80050002DDAD1BDE8F88F51
:10166000C62C00082DE9FE4FDFF8988001921C4639
:101670008B4607460022002B18BF4FF0FF343AE09C
:10168000F8B20292782888BF0BF1010B88BF0027BF
:10169000FDB25FFA8BF1284600F036F8A6F1200083
:1016A000C1464FF0000AC0B208EB0018060107E07F
:1016B00018F80A00E1B2484000F04AF80AF1010ABD
:1016C000BAF1080FF4D10BF10100C1B2284600F0C5
:1016D0001BF809EB0600C846002600F1080505E0E6
:1016E000A85DE1B2484000F033F80136082EF7D18A
:1016F000029A083701320199D0B20E5C002EBFD198
:10170000BDE8FE8FEE2E0008B0B50446A1F15000F2
:10171000064DC0B2A84720091030A84704F00E00BB
:1017200029460130BDE8B040084700BF3117000826
:10173000B0B50446FFF746FD0D4D7820A8470020C0
:10174000A8472046A847BDE8B040FFF74BBD00BF03
:10175000B0B50446FFF736FD054D7820A847402078
:10176000A8472046A847BDE8B040FFF73BBD00BFF3
:10177000C1290008BCB54FF00A0E4FF0000CB2FBB7
:10178000FEF48DF807C004EB8405A2EB450545F097
:1017900030058DF80650B4FBFEF505EB8505A4EB8E
:1017A000450444F030048DF805406424B2FBF4F4A1
:1017B000B4FBFEF505EB8505A4EB450444F03004CD
:1017C0008DF804404FF47A74B2FBF4F4B4FBFEF5E8
:1017D00005EB8505A4EB450444F030048DF8034087
:1017E00042F21074B2FBF4F2B2FBFEF54FF0200EA1
:1017F00005EB8505A2EB450242F030028DF8022090
:101800000DF1020207E012F80C40302C06D102F86C
:101810000CE00CF1010CBCF1030FF4D9012B06D044
:1018200053B90DF102020023FFF7E4FEBCBD0DF138
:1018300002020023FFF716FFBCBD70477047FEF79A
:1018400031BDB0B594B000244FF4E0100225012161
:10185000CDE90F44CDE90D44CDE9024413904FF496
:101860008030129011950E910C94CDE90A100AA8BF
:10187000FFF70AFB4FF480600994022108900F20C3
:10188000CDE90654059005A8FFF726FA1020049428
:10189000019001A8FFF7A8F914B0B0BD0E480F4A97
:1018A000016841F001010160416811400C4A41604A
:1018B000016811400160016821F4802101604168E4
:1018C00021F4FE0141604FF41F01816005484FF093
:1018D00000610160704700BF001002400000FFF887
:1018E000FFFFF6FE08ED00E07047D0F8181200295F
:1018F0000EBF02200020C1F814027047B0B5D0F826
:101900001852044600F0AEFAC5F80C02D4F81802DA
:1019100048B1D4F81C22D5F8040205F50371D26849
:1019200090470020B0BD0220B0BD0000B0B50D4D05
:1019300081210446A84720460121A847204682214C
:10194000A847D4F8180250B1D4F81C024068804768
:10195000D4F8180200F040FD0020C4F8180200205E
:10196000B0BD00BF4D1D000810B5D0F81C1269B104
:10197000D0F8184294F80002FF2807D08B6894F83A
:10198000012221469847FF2084F80002002010BD64
:101990000A21018000487047E800002043210180AF
:1019A00000487047600000204321018000487047D4
:1019B000A40000204321018000487047F40000206B
:1019C000B0B50446007C50B120468121022240235C
:1019D00000F09CFA20460121022240230BE0204621
:1019E000812102224FF4007300F090FA2046012179
:1019F00002224FF4007300F089FA2046822103226C
:101A0000082300F083FA4FF4077000F0E7FC002889
:101A1000C4F8180217D00546D4F81C0200688047A5
:101A200000200121C5F81402C5F81802207CD5F861
:101A300004220028204614BF40234FF4007300F016
:101A400071FA0020B0BD0120B0BD80B5D0F81812E9
:101A500069B1D1F80422017C00294FF0010114BFC3
:101A600040234FF4007300F05DFA002080BD022097
:101A700080BD00290EBF0220C0F81C120020704754
:101A8000D0F81802C0F8041200207047D0F81802ED
:101A9000C0F81022C0F808120020704770B5044644
:101AA00008780D4610F0600111D0202929D1EA886C
:101AB000A2B1D4F81862000618D4687886F801221A
:101AC000314686F80002204600F042F819E06878B6
:101AD0000A2816D10C492046012210E0D4F81C1225
:101AE000687800228B68294698470AE0D4F81C12CF
:101AF00068788B6831469847EA882046314600F07E
:101B00003FF8002070BD00BFA401002080B5D0F8D0
:101B1000142252689047002080BD80B513460A46C3
:101B2000002100F0FFF9002080BD80B513460A4671
:101B3000002100F085FA002080BD10B58021044608
:101B400000F063FA20460021BDE8104000F05DBAC5
:101B500080B513460A460321C0E94233C0F8F411A8
:101B6000002100F0DFF9002080BD80B505210022B2
:101B70000023C0F8F411002100F0D4F9002080BD4A
:101B800080B513460A460221C0E90633C0F8F411B5
:101B9000002100F055FA002080BD80B5042100220C
:101BA0000023C0F8F411002100F04AFA002080BDA3
:101BB00010B52B4C0A4603A0214600F06FF82046D2
:101BC00010BD00BF43444320436F6E666967000049
:101BD00012200880004870473801002010B5204CC2
:101BE0000A4603A0214600F059F8204610BD00BF68
:101BF00043444320496E746572666163650000006A
:101C000004200880004870475C01002010B5144C87
:101C10000A4603A0214600F041F8204610BD00BF4F
:101C200053544D6963726F656C656374726F6E694E
:101C30006373000010B50A4C0A4603A0214600F069
:101C40002DF8204610BD00BF53544D333220566945
:101C5000727475616C20436F6D506F727400000078
:101C6000A80100201A2008800A4908688A6880189C
:101C70000ED0B0B5084D4C680822A91CFFF7C6FA73
:101C800005F1120120460422FFF7C0FABDE8B0407A
:101C900001487047E8F7FF1F6001002080B550B38E
:101CA0004FF0000C864603E00EF1010E0CF1010C22
:101CB0009EF80030002BF7D15FFA8CFC4FF0020E3B
:101CC0000EEB4C0CA2F800C081F800C04FF0030CE2
:101CD00001220BE05FFA8EF301304FF0000CCA5482
:101CE0004EF001020EF10203D2B29E4601F802C08C
:101CF0000278002AEED180BD03288FBF0220C000E9
:101D0000024921FA00F098BFC0B2704700020102F8
:101D100088B1D0F8143213B10023C0F8143209B1DD
:101D2000C0F8101280B50121027080F8FC1100F09B
:101D30009FF8002080BD0220704780B5D0F82002B7
:101D4000FEF791FBBDE88040FFF7D6BF80B5D0F825
:101D50002002FEF766FBBDE88040FFF7CDBFB0B5BF
:101D6000044659B1D4F814024269002A46D094F8C6
:101D7000FC01032842D1204690473FE0D4F8F4010B
:101D8000022834D1D4E90710814208D9081A114633
:101D900083B2E06120461A46FFF7C7FE13E0A1694F
:101DA000814217D3B1FBF0F202FB101090B9D4F8C6
:101DB000F80181420ED22046002100220025FFF7C3
:101DC000B4FEC4F8F851204600210022002300F0A0
:101DD000A9F80CE0D4F81402C16829B194F8FC0108
:101DE000032801D1204688472046FFF7BEFE94F81D
:101DF0000002012804BF002084F800020020B0BDCA
:101E000010B5044651B1D4F81402826942B394F873
:101E1000FC01032824D12046904721E0D4F8F401A6
:101E200003281DD1D4E9431081420CD9091AC4F802
:101E30000C11814238BF084683B2114620461A462B
:101E4000FFF76BFE0CE0D4F81402016929B194F895
:101E5000FC01032801D1204688472046FFF79DFE5C
:101E6000002010BD80B5D0F82002FEF721FB80BD18
:101E7000B0B504461B4800211B4B0822C0F85C4447
:101E8000C4F82002C0E9061101620221C0E9003253
:101E90008160FEF7C5FD08B1FEF7FEF9D4F8200217
:101EA000124D002100221823A847D4F820028021D7
:101EB00000225823A847D4F8200281210022C02301
:101EC000A847D4F82002012100224FF48873A847C4
:101ED000D4F82002822100224FF48073A84700200A
:101EE000B0BD00BFC00F0020005C0040D10300085F
:101EF000D0F8200201F07F02090600EB421000F149
:101F00002A0258BF00F22A221078704780B5944602
:101F1000D0F820021A466346FEF7D1FABDE88040A9
:101F2000FFF7EABE80B5D0F82002FEF7EBFABDE875
:101F30008040FFF7E1BEB0B50021002240230446F7
:101F40004025FFF7E3FF2046802100224023C4F80C
:101F50001051FFF7DBFF012084F8FC012562D4F863
:101F6000180228B1D4F8140221794268204690471B
:101F70000020B0BD90F8FD1180F8FC1100207047E2
:101F800090F8FC11032907D1D0F81412C96919B1CE
:101F900080B58847BDE8804000207047017400206C
:101FA000704780B5D0F82002FEF7DAFDBDE880402A
:101FB000FFF7A2BEB0B500F502750446284600F052
:101FC00048F8B4F80E120120C4E97D0194F8080223
:101FD00000F01F01022907D001290AD071B920465B
:101FE000294600F05BF80EE02046294600F06EF925
:101FF00009E02046294600F0D2F904E000F0800113
:10200000204600F002F80020B0BD80B5D0F82002D4
:10201000FEF78EFABDE88040FFF76EBE80B5D0F8BF
:102020002002FEF7B8FDBDE88040FFF765BE90F8DE
:10203000FC1180F8FD11042180F8FC11002070478C
:1020400080B5D0F82002FEF79CFABDE88040FFF78B
:1020500053BE0A7802704A7842704A8842808A8861
:102060008280C988C180704700290EBF0220C0F855
:10207000141200207047D0F814223AB180B51268CB
:102080009047002818BF0120400080BD0220704703
:1020900080B5FFF7C3FF002080BD0000BCB504463B
:1020A0004878092800F2CF800D46DFE800F00518D7
:1020B000CC25CC5A7ACC364694F8FC0100F0FE00D0
:1020C000022840F0C080D4F80402032221460028F0
:1020D00008BF012241F80C2F20460222D8E094F8D4
:1020E000FC0100F0FE00022840F0AD806888012865
:1020F00040F0AC80002004E06888012840F0A68011
:102100000120C4F804022946D4F81402826820464B
:1021100090472046FFF741FD98E0E888012840F00D
:10212000928094F8FC01032851D0022840F08B8063
:102130000020214641F8080F4AE06888624DC1B28C
:102140002870022980F07F8094F8FC01032842D097
:10215000022840F078800029DBD0032084F8FC01BD
:1021600044E0A888002840F06E80E888002840F00D
:102170006A8094F8FC01032800F06580A87800F0DC
:102180007F052046294684F8FE51FFF70AFF2046C6
:10219000FFF703FD002D0CBF0120022084F8FC0195
:1021A00054E068884FF0FF3101EB102106294AD82E
:1021B000DFE801F004312449493E4700D4F8101209
:1021C000207C0A680DF106019047014653E0211D6D
:1021D000204601225CE000293BD0606888423FF441
:1021E00098AFC1B22046FFF791FC29782046616084
:1021F000FFF741FF02287FF48CAF24E0C0B205282E
:1022000021D8DFE800F003484D52575CD4F8101293
:10221000207C4A68D6E7217CD4F8140200290CBF40
:10222000816AC16A0DF1060088470146022021E05B
:10223000207C40B9D4F81402416B0DF106008847A8
:10224000C3E7207C70B12046FFF777FC002002B086
:10225000B0BD00206060022084F8FC012046FFF73A
:1022600055FC56E7D4F81402016B0DF106008847BF
:10227000014607204870BDF806000028E6D0EA882D
:10228000002AE3D0904238BF0246ADF8062020462F
:10229000FFF776FCDAE7D4F81012207C8A6891E721
:1022A000D4F81012207CCA688CE7D4F81012207C75
:1022B0000A6987E7D4F81012207C4A6982E7D4F8CB
:1022C0001012207C8A697DE7A5010020B0B5044684
:1022D00008780D4600F06000202807D1D4F81402D9
:1022E00029468268204690470020B0BD6878297949
:1022F00088B1012818D00328F6D194F8FC010328EE
:1023000016D1688850BB41F08000802826D0204636
:10231000FFF77BFE22E094F8FC01032828D0022876
:1023200010D148060AD1DFE794F8FC0103280DD04C
:10233000022807D141F080008028D5D02046FFF741
:1023400064FED1E72046FFF7F8FBCDE76888002858
:10235000CAD1480608D02046FFF7EFFCD4F8140293
:1023600029468268204690472046FFF716FCBBE7C7
:1023700001F07F000A0604EB001000F1140558BFBD
:1023800000F582752046FFF7B3FD002818BF012035
:102390002860294602222046FFF7F2FBA4E7B0B5E9
:1023A000044690F8FC01032804D188880D4610F0FB
:1023B000FE0F04D02046FFF7C0FB0020B0BDD4F8CC
:1023C00014022946826820469047E8880028F4D104
:1023D0002046FFF7E2FBF0E7704700000048704737
:1023E000A803002070B5CA78032A0CD8DFE802F0F1
:1023F000020D161D0D7848F68F1430F82520224066
:1024000002F5007219E00D7819E00D7848F68F1486
:1024100030F82520224002F580620EE00D7848F663
:102420008F1430F82520224007E00D7848F68F14ED
:1024300030F82520224002F5C06220F825206A00ED
:1024400040F60F7348F2800C30F8124023402B43C3
:1024500043EA0C0320F8123000EB42028B7A002B87
:1024600048D0138840F60F6633400CF5807633432E
:102470001380CB88B0F8506006EBC50623F001034B
:1024800000EB4606C6F800340B89B0F8506006EB46
:10249000C50623F0010300EB4600C0F80834497874
:1024A000108800F48040002944D038B1108840F6EC
:1024B0000F7108400CF580410843108010884006D9
:1024C00007D5108840F60F7108400CF14001084311
:1024D0001080108840F60F7108400CF580410843C9
:1024E00040F63F7110801088084043F60F7140EAB3
:1024F0000C0044E04B788C88B0F8506006EBC506C1
:1025000024F0010E002B40D000EB4600C0F800E4A0
:102510001088400607D5108840F60F7108400CF16E
:10252000400108431080108840F63F7108400CF1CC
:1025300020015CE038B1108840F60F7108400CF5BE
:102540008041084310801088400607D5108840F667
:102550000F7108400CF1400108431080108840F6CC
:102560000F7108400CF14001084343F60F711080D1
:10257000108808400CF54051484040F63F711080EB
:102580001088084040EA0C0032E000EB4604EB0003
:10259000C4F808E4B0F85060096900F20C40334414
:1025A0003F290BD34E0140F2FF35C90626EA050646
:1025B00008BF06F5F84646F4004104E001F00106C4
:1025C00006EB5101890289B240F8131010884004CB
:1025D00007D5108840F60F7108400CF5804108437C
:1025E0001080108843F60F7108400CF540514840A8
:1025F0001080002070BD0020704780B50A784B78AD
:10260000897A48F2800C30F822E000EB820041B376
:102610000EF480428BB33AB1018840F60F7211403C
:102620000CF58042114301800188490607D50188D5
:1026300040F60F7211400CF14002114301800188F5
:1026400040F60F7211400CF58042114340F63F7284
:1026500001800188114041EA0C01018043F60F72AC
:1026600030E0B3B35FEA4E612AD5018840F60F72BD
:1026700011400CF14002114321E03AB1018840F6CB
:102680000F7211400CF58042114301800188490608
:1026900007D5018840F60F7211400CF1400211433A
:1026A0000180018840F60F7211400CF14002114385
:1026B00043F60F7201800188114041EA0C0101804C
:1026C00040F63F720188114041EA0C010180002070
:1026D00080BD5FEA4E41C1D5018840F60F721140BE
:1026E0000CF580421143B8E7002070470020704786
:1026F0000121A0F840100021A0F84010A0F84410DB
:10270000A0F85010B0F8401041F43F41A0F840103C
:1027100000207047B0F8401044F2FF221140A0F8AA
:102720004010002070470020704780B50B78497832
:1027300030F823205B0091B1510648F2B00E0BD562
:1027400030F813C040F60F710CEA010C0EF11001C5
:1027500041EA0C0120F8131040F63F7111E05104DA
:102760004BF2800E0BD530F813C040F60F710CEA17
:10277000010C0EF5805141EA0C0120F8131043F6CC
:102780000F7130F81320114081EA0E0120F8131068
:10279000002080BD0A786AB1497830F822305200B2
:1027A00049F2800C81B140F63F711940ACF57F636E
:1027B00059400EE0018843F63F731940074B103330
:1027C000594020F8221006E043F60F71194081EAC3
:1027D0000C0120F812100020704700BF8090FFFF0E
:1027E00070B5044608698E690D460146864288BF69
:1027F0003146A1EB0001A96188BF06466878A97A35
:10280000012827D151B32878B3B234F82010B4F896
:10281000502002EBC00004EB4000C0F804644806FE
:102820004FF0080058BF06202A5A6969204600F078
:10283000B3F8687848F2B001002841D001284BD1A4
:10284000287840F60F7334F820201A403C4B03F5EB
:1028500080533DE0B1B1D8B1287864E0AA886969B5
:10286000B3B2204600F098F8B4F85010287840F63B
:102870003F7201EBC00104EB4101C1F8046448F26E
:10288000B00154E0B4F85010287801EBC00132E0F8
:10289000B4F85010287804F204433F2E01EBC00E28
:1028A0004FEAC0021CD34FEA461C40F2FF35F10646
:1028B0002CEA050508BF05F5F84545F4004114E08C
:1028C000287840F60F7334F820201A4001F11003E5
:1028D0001A4324F8202000E0287840F63F7226E0D2
:1028E00006F0010101EB560189028DB243F81E503A
:1028F000B4F85010114404F20C423F2E0BD3730174
:1029000040F2FF35F60623EA050308BF03F5F84356
:1029100043F4004304E006F0010303EB56039B027B
:102920009BB242F8113043F60F724BF2800134F83B
:1029300020301A40514024F82010002070BD00BF04
:1029400080B0FFFFB0F8401041F43F41A0F84010C4
:10295000002070470148FDF728BE00BFC00F0020CF
:10296000B0F84400704700EB420003F1010C002373
:10297000A3EB5C0300F5806003E004C8013321F899
:10298000022B002BF9D170470020704711B980212C
:10299000A0F84C100020704700EB420003F1010C3E
:1029A0000023A3EB5C0300F5806004E031F8022B08
:1029B000013320F8042B002BF8D17047FEE700000C
:1029C0002DE9F843134D144F044600264FF0080834
:1029D0004FF0100914E060B2B0F1FF3F4FF001007A
:1029E000CCBFC5F80480C5F80080B8470120C5F801
:1029F0000090B8470120C5F80490B847013664003C
:102A0000072EE8D9102401202C6000F01BF86C6020
:102A1000BDE8F88310080140452A000810B50446B7
:102A20000420FEF7AFFB1448046010BD10B5044647
:102A300004E04FF47A7000F005F8013C002CF8D166
:102A400010BD000080B50B490B4A0023D1F800C02F
:102A5000126802FB00FE48684A689042FCD00344BA
:102A600090421046A3EB020398BF6344734528BF0E
:102A700080BDF1E714E000E0980D002088B0FDF77C
:102A80001BFCFEF7DEFE754C4FF000082020CDE960
:102A90000088CDE90588A0470420A0470820082524
:102AA000A0476F4C18206F490126DFF8BCA1606178
:102AB00043F201008B4648600796049546F2655044
:102AC00003AD039020462946D047022741F618005F
:102AD000CDF818802946CDE9046703902046D047F9
:102AE00004A82946A14680E8C0016048039004F587
:102AF0008060D0475E48FEF7F9FB5E48FEF7F6FBC4
:102B00004FF480406D468DF80660ADF8046000908B
:102B10002846FEF7A5FB4FF400408DF80660ADF89F
:102B2000046000902846FEF79BFBDBF800004FF4A2
:102B30008821514D91FAA1F120F488204FF4902181
:102B4000CBF80000DBF8000091FAA1F120F490200E
:102B5000CBF800002846FEF755FC05F14010FEF7C3
:102B600051FC464C03212068C0F30220FEF7BEFC56
:102B7000434E000186F828034FF480707060FEF722
:102B800089FC03AD14212846FDF7D3FA3D480168BE
:102B900041F0010101600221006800F00100009095
:102BA00000982068C0F30220FEF7A0FC000129462F
:102BB0004FF0804486F81C034FF08050306041F2A3
:102BC0008830CDF81880CDE904804820ADF80C009D
:102BD0004FF08040FEF732FC20682B4D44F2070195
:102BE00040F080002060686888436860286820F0B2
:102BF00070002860686820F080006860206840F0FD
:102C000001002060206820F0010020604820FFF7CC
:102C100005FFFEF7ABFC4FF44870FFF707FF1B4EB4
:102C20001B4F1C4CD9F808003268012100230120F9
:102C3000FEF7A0FD3A683C2001210023FEF79AFD33
:102C40002268012005210023FEF794FD2A6A3C201A
:102C500005210023FEF78EFDE4E700BF45120008C2
:102C6000000801400C0C0140191300083101300428
:102C70000300000F030000F0400040040CED00E0F2
:102C800000E100E01C10024004000040840100202C
:102C9000880100208C01002002E008C8121F08C132
:102CA000002AFAD170477047002001E001C1121FCD
:102CB000002AFBD170470000000000000000010264
:102CC0000304060708090000000000000000002FB0
:102CD000000000000700070000147F147F14002488
:102CE0002A7F2A12006264081323003649552250B5
:102CF00000000503000000001C22410000004122EA
:102D00001C000014083E08140008083E08080000D3
:102D100000A06000000808080808000060600000CB
:102D2000002010080402003E5149453E0000427F49
:102D30004000004261514946002141454B31001895
:102D400014127F10002745454539003C4A49493057
:102D50000001710905030036494949360006494911
:102D6000291E00003636000000005636000000081C
:102D700014224100001414141414000041221408F9
:102D800000020151090600324959513E007C1211DE
:102D9000127C007F49494936003E41414122007F73
:102DA0004141221C007F49494941007F090909012D
:102DB000003E4149497A007F0808087F0000417FB2
:102DC0004100002040413F01007F08142241007F64
:102DD00040404040007F020C027F007F0408107FCB
:102DE000003E4141413E007F09090906003E415134
:102DF000215E007F091929460046494949310001F1
:102E0000017F0101003F4040403F001F2040201F44
:102E1000003F4038403F0063140814630007087007
:102E2000080700615149454300007F4141000055BA
:102E30002A552A55000041417F0000040201020486
:102E40000040404040400000010204000020545473
:102E50005478007F484444380038444444200038C3
:102E60004444487F00385454541800087E09010235
:102E70000018A4A4A47C007F080404780000447D0A
:102E80004000004080847D00007F10284400000046
:102E9000417F4000007C04180478007C080404781A
:102EA00000384444443800FC242424180018242406
:102EB00018FC007C08040408004854545420000402
:102EC0003F444020003C4040207C001C2040201C0F
:102ED000003C4030403C004428102844001CA0A086
:102EE000A07C004464544C441414141414140000C2
:102EF00000000000000000000000000000000000D2
:102F000000F8000000000000003330000000001056
:102F10000C06100C0600000000000000000040C07D
:102F20007840C0784000043F04043F04040000706F
:102F300088FC08300000001820FF211E0000F00867
:102F4000F000E018000000211C031E211E0000F00C
:102F50000888700000001E21232419272110101654
:102F60000E00000000000000000000000000000053
:102F700000E01804020000000007182040000002D2
:102F80000418E00000000040201807000000404046
:102F900080F0804040000202010F010202000000A8
:102FA00000F0000000000101011F0101010000000C
:102FB00000000000000080B0700000000000000071
:102FC00000000000000000010101010101010000FA
:102FD0000000000000000030300000000000000091
:102FE000000080601804006018060100000000E086
:102FF00010080810E000000F102020100F00001033
:1030000010F8000000000020203F20200000007089
:103010000808088870000030282422213000003081
:103020000888884830000018202020110E00000079
:10303000C02010F8000000070424243F240000F8FA
:103040000888880808000019212020110E0000E0DF
:10305000108888180000000F112020110E00003881
:103060000808C83808000000003F00000000007099
:10307000880808887000001C222121221C0000E022
:1030800010080810E0000000312222110F0000009B
:1030900000C0C00000000000003030000000000050
:1030A00000800000000000008060000000000000C0
:1030B0008040201008000001020408102000404059
:1030C000404040404000040404040404040000089C
:1030D0001020408000000020100804020100007051
:1030E00048080808F0000000003036010000C03039
:1030F000C828E810E0000718272423140B0000005C
:10310000C038E0000000203C23020227382008F8E5
:10311000888888700000203F202020110E00C030D9
:10312000080808083800071820202010080008F8B0
:1031300008080810E000203F202020100F0008F8A9
:103140008888E8081000203F20202320180008F875
:103150008888E8081000203F200003000000C030ED
:1031600008080838000007182020221E020008F86E
:1031700008000008F808203F210101213F20000835
:1031800008F8080800000020203F20200000000070
:103190000808F8080800C08080807F00000008F858
:1031A00088C028180800203F20012638200008F891
:1031B000080000000000203F20202020300008F8F8
:1031C000F800F8F80800203F003F003F200008F812
:1031D00030C00008F808203F200007183F00E0102A
:1031E00008080810E0000F10202020100F0008F839
:1031F00008080808F000203F210101010000E0104C
:1032000008080810E0000F18242438504F0008F870
:10321000888888887000203F2000030C30200070D0
:103220008808080838000038202121221C001808CE
:1032300008F8080818000000203F2000000008F8E7
:1032400008000008F808001F202020201F00087830
:10325000880000C83808000007380E010000F80890
:1032600000F80008F800033C0700073C03000818BA
:1032700068808068180820302C03032C3020083820
:10328000C800C83808000000203F200000001008D7
:103290000808C8380800203826212020180000001F
:1032A00000FE020202000000007F40404000000CCF
:1032B00030C000000000000000010638C00000021D
:1032C0000202FE000000004040407F0000000000BD
:1032D00004020202040000000000000000000000E0
:1032E00000000000000080808080808080800002DC
:1032F00002040000000000000000000000000000C8
:103300008080808000000019242222223F2008F8BB
:10331000008080000000003F112020110E000000FE
:10332000008080800000000E11202020110000008D
:1033300000808088F800000E112020103F2000003F
:10334000808080800000001F222222221300008043
:1033500080F0888888180020203F2020000000008E
:10336000808080808000006B94949493600008F8C3
:10337000008080800000203F210000203F2000804E
:103380009898000000000020203F2020000000004E
:1033900000809898000000C08080807F000008F8BE
:1033A000000080808000203F24022D302000000893
:1033B00008F8000000000020203F2020000080804E
:1033C000808080808000203F20003F20003F808060
:1033D000008080800000203F210000203F2000006E
:1033E000808080800000001F202020201F0080801F
:1033F00000808000000080FFA12020110E0000004E
:10340000008080808000000E112020A0FF8080803E
:1034100080008080800020203F21200001000000EB
:1034200080808080800000332424242419000080C0
:1034300080E0808000000000001F202000008080CD
:10344000000000808000001F202020103F2080808E
:1034500080000080808000010E300806010080801E
:103460000080008080800F300C030C300F00008043
:103470008000808080000020312E0E31200080806E
:1034800080000080808080818E701806010000809E
:103490008080808080000021302C222130000000BC
:1034A0000000807C020200000000003F404000005D
:1034B0000000FF00000000000000FF00000000020C
:1034C000027C800000000040403F00000000000639
:1034D00001010202040400000000000000000000DE
:1034E0000035000800000020800100006C01000889
:1034F000C835000880010020A81A0000A82C000888
:103500003201321013D11B1408011C1B080D041AC0
:1035100035041A65041AB1141ADD041116A24A04FE
:10352000C1191B082D041B9D1A10311A690C13EBCD
:10353000181B08FD04C12AA92419041AB5041A91FC
:10354000041409024313020125C03209041B0102BD
:103550000B1305241610010524011009010424028F
:103560000205240617010705820308151009040146
:1035700033020A2E0705010240072A810711093785
:1035800044113A02441907112B0A0606112A40F089
:103590002B0907500A2204500A16FF941A12171317
:1035A00002021E40830440574D1B02035913CD01F4
:1035B0001B08C9041AC5041AF104071E04030904F0
:0835C0001A03000000000000E6
:04000005080000ED02
:00000001FF
